{
  "address": "0xDeC6b9c484f01B080AdFa2fCE29FF6DD65FE97b0",
  "abi": [
    {
      "inputs": [
        {
          "internalType": "uint256",
          "name": "_platformFee",
          "type": "uint256"
        }
      ],
      "stateMutability": "payable",
      "type": "constructor"
    },
    {
      "inputs": [
        {
          "internalType": "uint256",
          "name": "minAmount",
          "type": "uint256"
        },
        {
          "internalType": "uint256",
          "name": "donatedAmount",
          "type": "uint256"
        }
      ],
      "name": "AmountDonatedMustBeGreaterThanZero",
      "type": "error"
    },
    {
      "inputs": [
        {
          "internalType": "uint256",
          "name": "campaignDeadline",
          "type": "uint256"
        },
        {
          "internalType": "uint256",
          "name": "timeRequested",
          "type": "uint256"
        }
      ],
      "name": "DeadlineReached",
      "type": "error"
    },
    {
      "anonymous": false,
      "inputs": [
        {
          "indexed": false,
          "internalType": "uint256",
          "name": "id",
          "type": "uint256"
        },
        {
          "indexed": false,
          "internalType": "string",
          "name": "actionType",
          "type": "string"
        },
        {
          "indexed": true,
          "internalType": "address",
          "name": "executor",
          "type": "address"
        },
        {
          "indexed": false,
          "internalType": "uint256",
          "name": "timestamp",
          "type": "uint256"
        }
      ],
      "name": "Action",
      "type": "event"
    },
    {
      "inputs": [
        {
          "internalType": "uint256",
          "name": "",
          "type": "uint256"
        }
      ],
      "name": "campaigns",
      "outputs": [
        {
          "internalType": "address",
          "name": "owner",
          "type": "address"
        },
        {
          "internalType": "string",
          "name": "name",
          "type": "string"
        },
        {
          "internalType": "string",
          "name": "category",
          "type": "string"
        },
        {
          "internalType": "string",
          "name": "title",
          "type": "string"
        },
        {
          "internalType": "string",
          "name": "description",
          "type": "string"
        },
        {
          "internalType": "uint256",
          "name": "target",
          "type": "uint256"
        },
        {
          "internalType": "uint256",
          "name": "deadline",
          "type": "uint256"
        },
        {
          "internalType": "uint256",
          "name": "amountCollected",
          "type": "uint256"
        },
        {
          "internalType": "string",
          "name": "image",
          "type": "string"
        }
      ],
      "stateMutability": "view",
      "type": "function"
    },
    {
      "inputs": [
        {
          "internalType": "address",
          "name": "_owner",
          "type": "address"
        },
        {
          "internalType": "string",
          "name": "_name",
          "type": "string"
        },
        {
          "internalType": "string",
          "name": "_title",
          "type": "string"
        },
        {
          "internalType": "string",
          "name": "_category",
          "type": "string"
        },
        {
          "internalType": "string",
          "name": "_description",
          "type": "string"
        },
        {
          "internalType": "uint256",
          "name": "_target",
          "type": "uint256"
        },
        {
          "internalType": "uint256",
          "name": "_deadline",
          "type": "uint256"
        },
        {
          "internalType": "string",
          "name": "_image",
          "type": "string"
        }
      ],
      "name": "createCampaign",
      "outputs": [
        {
          "internalType": "uint256",
          "name": "",
          "type": "uint256"
        }
      ],
      "stateMutability": "nonpayable",
      "type": "function"
    },
    {
      "inputs": [
        {
          "internalType": "uint256",
          "name": "_id",
          "type": "uint256"
        }
      ],
      "name": "donateToCampaign",
      "outputs": [],
      "stateMutability": "payable",
      "type": "function"
    },
    {
      "inputs": [],
      "name": "getCampaigns",
      "outputs": [
        {
          "components": [
            {
              "internalType": "address",
              "name": "owner",
              "type": "address"
            },
            {
              "internalType": "string",
              "name": "name",
              "type": "string"
            },
            {
              "internalType": "string",
              "name": "category",
              "type": "string"
            },
            {
              "internalType": "string",
              "name": "title",
              "type": "string"
            },
            {
              "internalType": "string",
              "name": "description",
              "type": "string"
            },
            {
              "internalType": "uint256",
              "name": "target",
              "type": "uint256"
            },
            {
              "internalType": "uint256",
              "name": "deadline",
              "type": "uint256"
            },
            {
              "internalType": "uint256",
              "name": "amountCollected",
              "type": "uint256"
            },
            {
              "internalType": "string",
              "name": "image",
              "type": "string"
            },
            {
              "internalType": "address[]",
              "name": "donators",
              "type": "address[]"
            },
            {
              "internalType": "uint256[]",
              "name": "donations",
              "type": "uint256[]"
            }
          ],
          "internalType": "struct SaveAKid.Campaign[]",
          "name": "",
          "type": "tuple[]"
        }
      ],
      "stateMutability": "view",
      "type": "function"
    },
    {
      "inputs": [
        {
          "internalType": "uint256",
          "name": "_id",
          "type": "uint256"
        }
      ],
      "name": "getDonators",
      "outputs": [
        {
          "internalType": "address[]",
          "name": "",
          "type": "address[]"
        },
        {
          "internalType": "uint256[]",
          "name": "",
          "type": "uint256[]"
        }
      ],
      "stateMutability": "view",
      "type": "function"
    },
    {
      "inputs": [
        {
          "internalType": "uint256",
          "name": "",
          "type": "uint256"
        }
      ],
      "name": "homes",
      "outputs": [
        {
          "internalType": "address",
          "name": "owner",
          "type": "address"
        },
        {
          "internalType": "string",
          "name": "homeName",
          "type": "string"
        },
        {
          "internalType": "string",
          "name": "description",
          "type": "string"
        },
        {
          "internalType": "string",
          "name": "location",
          "type": "string"
        },
        {
          "internalType": "string",
          "name": "image",
          "type": "string"
        },
        {
          "internalType": "uint256",
          "name": "contactPerson",
          "type": "uint256"
        }
      ],
      "stateMutability": "view",
      "type": "function"
    },
    {
      "inputs": [],
      "name": "manager",
      "outputs": [
        {
          "internalType": "address",
          "name": "",
          "type": "address"
        }
      ],
      "stateMutability": "view",
      "type": "function"
    },
    {
      "inputs": [],
      "name": "numberOfCampaigns",
      "outputs": [
        {
          "internalType": "uint256",
          "name": "",
          "type": "uint256"
        }
      ],
      "stateMutability": "view",
      "type": "function"
    },
    {
      "inputs": [],
      "name": "numberOfHomes",
      "outputs": [
        {
          "internalType": "uint256",
          "name": "",
          "type": "uint256"
        }
      ],
      "stateMutability": "view",
      "type": "function"
    },
    {
      "inputs": [],
      "name": "platformFee",
      "outputs": [
        {
          "internalType": "uint256",
          "name": "",
          "type": "uint256"
        }
      ],
      "stateMutability": "view",
      "type": "function"
    },
    {
      "inputs": [
        {
          "internalType": "address",
          "name": "_owner",
          "type": "address"
        },
        {
          "internalType": "string",
          "name": "_homeName",
          "type": "string"
        },
        {
          "internalType": "string",
          "name": "_description",
          "type": "string"
        },
        {
          "internalType": "string",
          "name": "_location",
          "type": "string"
        },
        {
          "internalType": "string",
          "name": "_image",
          "type": "string"
        },
        {
          "internalType": "uint256",
          "name": "_contactPerson",
          "type": "uint256"
        }
      ],
      "name": "registerHome",
      "outputs": [
        {
          "internalType": "uint256",
          "name": "",
          "type": "uint256"
        }
      ],
      "stateMutability": "nonpayable",
      "type": "function"
    }
  ],
  "transactionHash": "0x1baf5312e75cff7a5e2666a935c4d01158b65c28540a05f4238ebc483ed5293b",
  "args": [
    5
  ],
  "numDeployments": 2,
  "solcInputHash": "84138e7ef6a29ab65700c3e7256ce9ec",
  "bytecode": "0x608060405260405162002451380380620024518339818101604052810190620000299190620000b8565b3373ffffffffffffffffffffffffffffffffffffffff16600360009054906101000a905050508060048190555034600260003373ffffffffffffffffffffffffffffffffffffffff1673ffffffffffffffffffffffffffffffffffffffff168152602001908152602001600020819055505062000113565b600081519050620000b281620000f9565b92915050565b600060208284031215620000d157620000d0620000f4565b5b6000620000e184828501620000a1565b91505092915050565b6000819050919050565b600080fd5b6200010481620000ea565b81146200011057600080fd5b50565b61232e80620001236000396000f3fe60806040526004361061009c5760003560e01c806342a4fda81161006457806342a4fda8146101b7578063481c6a75146101d357806361b0ef0a146101fe57806374bfc01e14610240578063a6b036331461027d578063aab5482c146102a85761009c565b806301327b3f146100a157806307ca140d146100de5780630fa91fa914610109578063141961bc1461014757806326232a2e1461018c575b600080fd5b3480156100ad57600080fd5b506100c860048036038101906100c3919061150e565b6102d3565b6040516100d59190611e09565b60405180910390f35b3480156100ea57600080fd5b506100f36103d0565b6040516101009190611e09565b60405180910390f35b34801561011557600080fd5b50610130600480360381019061012b919061174d565b6103d6565b60405161013e929190611d47565b60405180910390f35b34801561015357600080fd5b5061016e6004803603810190610169919061174d565b6104e8565b60405161018399989796959493929190611c97565b60405180910390f35b34801561019857600080fd5b506101a16107fe565b6040516101ae9190611e09565b60405180910390f35b6101d160048036038101906101cc919061174d565b610804565b005b3480156101df57600080fd5b506101e8610a4c565b6040516101f59190611bff565b60405180910390f35b34801561020a57600080fd5b506102256004803603810190610220919061174d565b610a72565b60405161023796959493929190611c1a565b60405180910390f35b34801561024c57600080fd5b506102676004803603810190610262919061160b565b610cee565b6040516102749190611e09565b60405180910390f35b34801561028957600080fd5b50610292610e60565b60405161029f9190611d7e565b60405180910390f35b3480156102b457600080fd5b506102bd61135b565b6040516102ca9190611e09565b60405180910390f35b60008060008060055481526020019081526020016000209050878160000160006101000a81548173ffffffffffffffffffffffffffffffffffffffff021916908373ffffffffffffffffffffffffffffffffffffffff16021790555086816001019080519060200190610347929190611361565b5085816002019080519060200190610360929190611361565b5084816003019080519060200190610379929190611361565b5083816004019080519060200190610392929190611361565b50828160050181905550600560008154809291906103af90612125565b919050555060016005546103c39190611ffe565b9150509695505050505050565b60065481565b6060806001600084815260200190815260200160002060090160016000858152602001908152602001600020600a018180548060200260200160405190810160405280929190818152602001828054801561048657602002820191906000526020600020905b8160009054906101000a900473ffffffffffffffffffffffffffffffffffffffff1673ffffffffffffffffffffffffffffffffffffffff168152602001906001019080831161043c575b50505050509150808054806020026020016040519081016040528092919081815260200182805480156104d857602002820191906000526020600020905b8154815260200190600101908083116104c4575b5050505050905091509150915091565b60016020528060005260406000206000915090508060000160009054906101000a900473ffffffffffffffffffffffffffffffffffffffff1690806001018054610531906120c2565b80601f016020809104026020016040519081016040528092919081815260200182805461055d906120c2565b80156105aa5780601f1061057f576101008083540402835291602001916105aa565b820191906000526020600020905b81548152906001019060200180831161058d57829003601f168201915b5050505050908060020180546105bf906120c2565b80601f01602080910402602001604051908101604052809291908181526020018280546105eb906120c2565b80156106385780601f1061060d57610100808354040283529160200191610638565b820191906000526020600020905b81548152906001019060200180831161061b57829003601f168201915b50505050509080600301805461064d906120c2565b80601f0160208091040260200160405190810160405280929190818152602001828054610679906120c2565b80156106c65780601f1061069b576101008083540402835291602001916106c6565b820191906000526020600020905b8154815290600101906020018083116106a957829003601f168201915b5050505050908060040180546106db906120c2565b80601f0160208091040260200160405190810160405280929190818152602001828054610707906120c2565b80156107545780601f1061072957610100808354040283529160200191610754565b820191906000526020600020905b81548152906001019060200180831161073757829003601f168201915b50505050509080600501549080600601549080600701549080600801805461077b906120c2565b80601f01602080910402602001604051908101604052809291908181526020018280546107a7906120c2565b80156107f45780601f106107c9576101008083540402835291602001916107f4565b820191906000526020600020905b8154815290600101906020018083116107d757829003601f168201915b5050505050905089565b60045481565b6000349050600060016000848152602001908152602001600020905060008211610868576001826040517f2ec457c400000000000000000000000000000000000000000000000000000000815260040161085f929190611da0565b60405180910390fd5b42816006015410156108c9576001600084815260200190815260200160002060060154426040517fd0a868260000000000000000000000000000000000000000000000000000000081526004016108c0929190611e24565b60405180910390fd5b80600901339080600181540180825580915050600190039060005260206000200160009091909190916101000a81548173ffffffffffffffffffffffffffffffffffffffff021916908373ffffffffffffffffffffffffffffffffffffffff16021790555080600a018290806001815401808255809150506001900390600052602060002001600090919091909150556000600360009054906101000a900473ffffffffffffffffffffffffffffffffffffffff1673ffffffffffffffffffffffffffffffffffffffff16836040516109a190611bea565b60006040518083038185875af1925050503d80600081146109de576040519150601f19603f3d011682016040523d82523d6000602084013e6109e3565b606091505b5050905080610a27576040517f08c379a0000000000000000000000000000000000000000000000000000000008152600401610a1e90611dc9565b60405180910390fd5b8015610a4657828260070154610a3d9190611fa8565b82600701819055505b50505050565b600360009054906101000a900473ffffffffffffffffffffffffffffffffffffffff1681565b60006020528060005260406000206000915090508060000160009054906101000a900473ffffffffffffffffffffffffffffffffffffffff1690806001018054610abb906120c2565b80601f0160208091040260200160405190810160405280929190818152602001828054610ae7906120c2565b8015610b345780601f10610b0957610100808354040283529160200191610b34565b820191906000526020600020905b815481529060010190602001808311610b1757829003601f168201915b505050505090806002018054610b49906120c2565b80601f0160208091040260200160405190810160405280929190818152602001828054610b75906120c2565b8015610bc25780601f10610b9757610100808354040283529160200191610bc2565b820191906000526020600020905b815481529060010190602001808311610ba557829003601f168201915b505050505090806003018054610bd7906120c2565b80601f0160208091040260200160405190810160405280929190818152602001828054610c03906120c2565b8015610c505780601f10610c2557610100808354040283529160200191610c50565b820191906000526020600020905b815481529060010190602001808311610c3357829003601f168201915b505050505090806004018054610c65906120c2565b80601f0160208091040260200160405190810160405280929190818152602001828054610c91906120c2565b8015610cde5780601f10610cb357610100808354040283529160200191610cde565b820191906000526020600020905b815481529060010190602001808311610cc157829003601f168201915b5050505050908060050154905086565b600080600160006006548152602001908152602001600020905042816006015410610d4e576040517f08c379a0000000000000000000000000000000000000000000000000000000008152600401610d4590611de9565b60405180910390fd5b898160000160006101000a81548173ffffffffffffffffffffffffffffffffffffffff021916908373ffffffffffffffffffffffffffffffffffffffff16021790555088816001019080519060200190610da9929190611361565b5087816003019080519060200190610dc2929190611361565b5086816002019080519060200190610ddb929190611361565b5085816004019080519060200190610df4929190611361565b508481600501819055508381600601819055506000816007018190555082816008019080519060200190610e29929190611361565b5060066000815480929190610e3d90612125565b91905055506001600654610e519190611ffe565b91505098975050505050505050565b6060600060065467ffffffffffffffff811115610e8057610e7f6121fb565b5b604051908082528060200260200182016040528015610eb957816020015b610ea66113e7565b815260200190600190039081610e9e5790505b50905060005b60065481101561135357600060016000838152602001908152602001600020905080604051806101600160405290816000820160009054906101000a900473ffffffffffffffffffffffffffffffffffffffff1673ffffffffffffffffffffffffffffffffffffffff1673ffffffffffffffffffffffffffffffffffffffff168152602001600182018054610f53906120c2565b80601f0160208091040260200160405190810160405280929190818152602001828054610f7f906120c2565b8015610fcc5780601f10610fa157610100808354040283529160200191610fcc565b820191906000526020600020905b815481529060010190602001808311610faf57829003601f168201915b50505050508152602001600282018054610fe5906120c2565b80601f0160208091040260200160405190810160405280929190818152602001828054611011906120c2565b801561105e5780601f106110335761010080835404028352916020019161105e565b820191906000526020600020905b81548152906001019060200180831161104157829003601f168201915b50505050508152602001600382018054611077906120c2565b80601f01602080910402602001604051908101604052809291908181526020018280546110a3906120c2565b80156110f05780601f106110c5576101008083540402835291602001916110f0565b820191906000526020600020905b8154815290600101906020018083116110d357829003601f168201915b50505050508152602001600482018054611109906120c2565b80601f0160208091040260200160405190810160405280929190818152602001828054611135906120c2565b80156111825780601f1061115757610100808354040283529160200191611182565b820191906000526020600020905b81548152906001019060200180831161116557829003601f168201915b505050505081526020016005820154815260200160068201548152602001600782015481526020016008820180546111b9906120c2565b80601f01602080910402602001604051908101604052809291908181526020018280546111e5906120c2565b80156112325780601f1061120757610100808354040283529160200191611232565b820191906000526020600020905b81548152906001019060200180831161121557829003601f168201915b50505050508152602001600982018054806020026020016040519081016040528092919081815260200182805480156112c057602002820191906000526020600020905b8160009054906101000a900473ffffffffffffffffffffffffffffffffffffffff1673ffffffffffffffffffffffffffffffffffffffff1681526020019060010190808311611276575b50505050508152602001600a820180548060200260200160405190810160405280929190818152602001828054801561131857602002820191906000526020600020905b815481526020019060010190808311611304575b505050505081525050838381518110611334576113336121cc565b5b602002602001018190525050808061134b90612125565b915050610ebf565b508091505090565b60055481565b82805461136d906120c2565b90600052602060002090601f01602090048101928261138f57600085556113d6565b82601f106113a857805160ff19168380011785556113d6565b828001600101855582156113d6579182015b828111156113d55782518255916020019190600101906113ba565b5b5090506113e39190611457565b5090565b604051806101600160405280600073ffffffffffffffffffffffffffffffffffffffff168152602001606081526020016060815260200160608152602001606081526020016000815260200160008152602001600081526020016060815260200160608152602001606081525090565b5b80821115611470576000816000905550600101611458565b5090565b600061148761148284611e72565b611e4d565b9050828152602081018484840111156114a3576114a261222f565b5b6114ae848285612080565b509392505050565b6000813590506114c5816122ca565b92915050565b600082601f8301126114e0576114df61222a565b5b81356114f0848260208601611474565b91505092915050565b600081359050611508816122e1565b92915050565b60008060008060008060c0878903121561152b5761152a612239565b5b600061153989828a016114b6565b965050602087013567ffffffffffffffff81111561155a57611559612234565b5b61156689828a016114cb565b955050604087013567ffffffffffffffff81111561158757611586612234565b5b61159389828a016114cb565b945050606087013567ffffffffffffffff8111156115b4576115b3612234565b5b6115c089828a016114cb565b935050608087013567ffffffffffffffff8111156115e1576115e0612234565b5b6115ed89828a016114cb565b92505060a06115fe89828a016114f9565b9150509295509295509295565b600080600080600080600080610100898b03121561162c5761162b612239565b5b600061163a8b828c016114b6565b985050602089013567ffffffffffffffff81111561165b5761165a612234565b5b6116678b828c016114cb565b975050604089013567ffffffffffffffff81111561168857611687612234565b5b6116948b828c016114cb565b965050606089013567ffffffffffffffff8111156116b5576116b4612234565b5b6116c18b828c016114cb565b955050608089013567ffffffffffffffff8111156116e2576116e1612234565b5b6116ee8b828c016114cb565b94505060a06116ff8b828c016114f9565b93505060c06117108b828c016114f9565b92505060e089013567ffffffffffffffff81111561173157611730612234565b5b61173d8b828c016114cb565b9150509295985092959890939650565b60006020828403121561176357611762612239565b5b6000611771848285016114f9565b91505092915050565b600061178683836117be565b60208301905092915050565b600061179e8383611ab3565b905092915050565b60006117b28383611bcc565b60208301905092915050565b6117c781612032565b82525050565b6117d681612032565b82525050565b60006117e782611ed3565b6117f18185611f26565b93506117fc83611ea3565b8060005b8381101561182d578151611814888261177a565b975061181f83611eff565b925050600181019050611800565b5085935050505092915050565b600061184582611ed3565b61184f8185611f37565b935061185a83611ea3565b8060005b8381101561188b578151611872888261177a565b975061187d83611eff565b92505060018101905061185e565b5085935050505092915050565b60006118a382611ede565b6118ad8185611f48565b9350836020820285016118bf85611eb3565b8060005b858110156118fb57848403895281516118dc8582611792565b94506118e783611f0c565b925060208a019950506001810190506118c3565b50829750879550505050505092915050565b600061191882611ee9565b6119228185611f59565b935061192d83611ec3565b8060005b8381101561195e57815161194588826117a6565b975061195083611f19565b925050600181019050611931565b5085935050505092915050565b600061197682611ee9565b6119808185611f6a565b935061198b83611ec3565b8060005b838110156119bc5781516119a388826117a6565b97506119ae83611f19565b92505060018101905061198f565b5085935050505092915050565b6119d28161206e565b82525050565b60006119e382611ef4565b6119ed8185611f86565b93506119fd81856020860161208f565b611a068161223e565b840191505092915050565b6000611a1c82611ef4565b611a268185611f97565b9350611a3681856020860161208f565b611a3f8161223e565b840191505092915050565b6000611a57600f83611f97565b9150611a628261224f565b602082019050919050565b6000611a7a602783611f97565b9150611a8582612278565b604082019050919050565b6000611a9d600083611f7b565b9150611aa8826122c7565b600082019050919050565b600061016083016000830151611acc60008601826117be565b5060208301518482036020860152611ae482826119d8565b91505060408301518482036040860152611afe82826119d8565b91505060608301518482036060860152611b1882826119d8565b91505060808301518482036080860152611b3282826119d8565b91505060a0830151611b4760a0860182611bcc565b5060c0830151611b5a60c0860182611bcc565b5060e0830151611b6d60e0860182611bcc565b50610100830151848203610100860152611b8782826119d8565b915050610120830151848203610120860152611ba382826117dc565b915050610140830151848203610140860152611bbf828261190d565b9150508091505092915050565b611bd581612064565b82525050565b611be481612064565b82525050565b6000611bf582611a90565b9150819050919050565b6000602082019050611c1460008301846117cd565b92915050565b600060c082019050611c2f60008301896117cd565b8181036020830152611c418188611a11565b90508181036040830152611c558187611a11565b90508181036060830152611c698186611a11565b90508181036080830152611c7d8185611a11565b9050611c8c60a0830184611bdb565b979650505050505050565b600061012082019050611cad600083018c6117cd565b8181036020830152611cbf818b611a11565b90508181036040830152611cd3818a611a11565b90508181036060830152611ce78189611a11565b90508181036080830152611cfb8188611a11565b9050611d0a60a0830187611bdb565b611d1760c0830186611bdb565b611d2460e0830185611bdb565b818103610100830152611d378184611a11565b90509a9950505050505050505050565b60006040820190508181036000830152611d61818561183a565b90508181036020830152611d75818461196b565b90509392505050565b60006020820190508181036000830152611d988184611898565b905092915050565b6000604082019050611db560008301856119c9565b611dc26020830184611bdb565b9392505050565b60006020820190508181036000830152611de281611a4a565b9050919050565b60006020820190508181036000830152611e0281611a6d565b9050919050565b6000602082019050611e1e6000830184611bdb565b92915050565b6000604082019050611e396000830185611bdb565b611e466020830184611bdb565b9392505050565b6000611e57611e68565b9050611e6382826120f4565b919050565b6000604051905090565b600067ffffffffffffffff821115611e8d57611e8c6121fb565b5b611e968261223e565b9050602081019050919050565b6000819050602082019050919050565b6000819050602082019050919050565b6000819050602082019050919050565b600081519050919050565b600081519050919050565b600081519050919050565b600081519050919050565b6000602082019050919050565b6000602082019050919050565b6000602082019050919050565b600082825260208201905092915050565b600082825260208201905092915050565b600082825260208201905092915050565b600082825260208201905092915050565b600082825260208201905092915050565b600081905092915050565b600082825260208201905092915050565b600082825260208201905092915050565b6000611fb382612064565b9150611fbe83612064565b9250827fffffffffffffffffffffffffffffffffffffffffffffffffffffffffffffffff03821115611ff357611ff261216e565b5b828201905092915050565b600061200982612064565b915061201483612064565b9250828210156120275761202661216e565b5b828203905092915050565b600061203d82612044565b9050919050565b600073ffffffffffffffffffffffffffffffffffffffff82169050919050565b6000819050919050565b600061207982612064565b9050919050565b82818337600083830152505050565b60005b838110156120ad578082015181840152602081019050612092565b838111156120bc576000848401525b50505050565b600060028204905060018216806120da57607f821691505b602082108114156120ee576120ed61219d565b5b50919050565b6120fd8261223e565b810181811067ffffffffffffffff8211171561211c5761211b6121fb565b5b80604052505050565b600061213082612064565b91507fffffffffffffffffffffffffffffffffffffffffffffffffffffffffffffffff8214156121635761216261216e565b5b600182019050919050565b7f4e487b7100000000000000000000000000000000000000000000000000000000600052601160045260246000fd5b7f4e487b7100000000000000000000000000000000000000000000000000000000600052602260045260246000fd5b7f4e487b7100000000000000000000000000000000000000000000000000000000600052603260045260246000fd5b7f4e487b7100000000000000000000000000000000000000000000000000000000600052604160045260246000fd5b600080fd5b600080fd5b600080fd5b600080fd5b6000601f19601f8301169050919050565b7f646f6e6174696f6e206661696c65640000000000000000000000000000000000600082015250565b7f646561646c696e652073686f756c642062652061206461746520696e2074686560008201527f2066757475726500000000000000000000000000000000000000000000000000602082015250565b50565b6122d381612032565b81146122de57600080fd5b50565b6122ea81612064565b81146122f557600080fd5b5056fea264697066735822122077ab3b76d2d3c8096d78fa56cc319117cd5f1116c3fc2a3a52a4bb6fa4ebc86c64736f6c63430008070033",
  "devdoc": {
    "kind": "dev",
    "methods": {},
    "version": 1
  },
  "userdoc": {
    "kind": "user",
    "methods": {},
    "version": 1
  },
  "storageLayout": {
    "storage": [
      {
        "astId": 70,
        "contract": "contracts/SaveAKid.sol:SaveAKid",
        "label": "homes",
        "offset": 0,
        "slot": "0",
        "type": "t_mapping(t_uint256,t_struct(Home)30_storage)"
      },
      {
        "astId": 75,
        "contract": "contracts/SaveAKid.sol:SaveAKid",
        "label": "campaigns",
        "offset": 0,
        "slot": "1",
        "type": "t_mapping(t_uint256,t_struct(Campaign)55_storage)"
      },
      {
        "astId": 79,
        "contract": "contracts/SaveAKid.sol:SaveAKid",
        "label": "balances",
        "offset": 0,
        "slot": "2",
        "type": "t_mapping(t_address,t_uint256)"
      },
      {
        "astId": 81,
        "contract": "contracts/SaveAKid.sol:SaveAKid",
        "label": "manager",
        "offset": 0,
        "slot": "3",
        "type": "t_address"
      },
      {
        "astId": 83,
        "contract": "contracts/SaveAKid.sol:SaveAKid",
        "label": "platformFee",
        "offset": 0,
        "slot": "4",
        "type": "t_uint256"
      },
      {
        "astId": 85,
        "contract": "contracts/SaveAKid.sol:SaveAKid",
        "label": "numberOfHomes",
        "offset": 0,
        "slot": "5",
        "type": "t_uint256"
      },
      {
        "astId": 87,
        "contract": "contracts/SaveAKid.sol:SaveAKid",
        "label": "numberOfCampaigns",
        "offset": 0,
        "slot": "6",
        "type": "t_uint256"
      }
    ],
    "types": {
      "t_address": {
        "encoding": "inplace",
        "label": "address",
        "numberOfBytes": "20"
      },
      "t_array(t_address)dyn_storage": {
        "base": "t_address",
        "encoding": "dynamic_array",
        "label": "address[]",
        "numberOfBytes": "32"
      },
      "t_array(t_uint256)dyn_storage": {
        "base": "t_uint256",
        "encoding": "dynamic_array",
        "label": "uint256[]",
        "numberOfBytes": "32"
      },
      "t_mapping(t_address,t_uint256)": {
        "encoding": "mapping",
        "key": "t_address",
        "label": "mapping(address => uint256)",
        "numberOfBytes": "32",
        "value": "t_uint256"
      },
      "t_mapping(t_uint256,t_struct(Campaign)55_storage)": {
        "encoding": "mapping",
        "key": "t_uint256",
        "label": "mapping(uint256 => struct SaveAKid.Campaign)",
        "numberOfBytes": "32",
        "value": "t_struct(Campaign)55_storage"
      },
      "t_mapping(t_uint256,t_struct(Home)30_storage)": {
        "encoding": "mapping",
        "key": "t_uint256",
        "label": "mapping(uint256 => struct SaveAKid.Home)",
        "numberOfBytes": "32",
        "value": "t_struct(Home)30_storage"
      },
      "t_string_storage": {
        "encoding": "bytes",
        "label": "string",
        "numberOfBytes": "32"
      },
      "t_struct(Campaign)55_storage": {
        "encoding": "inplace",
        "label": "struct SaveAKid.Campaign",
        "members": [
          {
            "astId": 32,
            "contract": "contracts/SaveAKid.sol:SaveAKid",
            "label": "owner",
            "offset": 0,
            "slot": "0",
            "type": "t_address"
          },
          {
            "astId": 34,
            "contract": "contracts/SaveAKid.sol:SaveAKid",
            "label": "name",
            "offset": 0,
            "slot": "1",
            "type": "t_string_storage"
          },
          {
            "astId": 36,
            "contract": "contracts/SaveAKid.sol:SaveAKid",
            "label": "category",
            "offset": 0,
            "slot": "2",
            "type": "t_string_storage"
          },
          {
            "astId": 38,
            "contract": "contracts/SaveAKid.sol:SaveAKid",
            "label": "title",
            "offset": 0,
            "slot": "3",
            "type": "t_string_storage"
          },
          {
            "astId": 40,
            "contract": "contracts/SaveAKid.sol:SaveAKid",
            "label": "description",
            "offset": 0,
            "slot": "4",
            "type": "t_string_storage"
          },
          {
            "astId": 42,
            "contract": "contracts/SaveAKid.sol:SaveAKid",
            "label": "target",
            "offset": 0,
            "slot": "5",
            "type": "t_uint256"
          },
          {
            "astId": 44,
            "contract": "contracts/SaveAKid.sol:SaveAKid",
            "label": "deadline",
            "offset": 0,
            "slot": "6",
            "type": "t_uint256"
          },
          {
            "astId": 46,
            "contract": "contracts/SaveAKid.sol:SaveAKid",
            "label": "amountCollected",
            "offset": 0,
            "slot": "7",
            "type": "t_uint256"
          },
          {
            "astId": 48,
            "contract": "contracts/SaveAKid.sol:SaveAKid",
            "label": "image",
            "offset": 0,
            "slot": "8",
            "type": "t_string_storage"
          },
          {
            "astId": 51,
            "contract": "contracts/SaveAKid.sol:SaveAKid",
            "label": "donators",
            "offset": 0,
            "slot": "9",
            "type": "t_array(t_address)dyn_storage"
          },
          {
            "astId": 54,
            "contract": "contracts/SaveAKid.sol:SaveAKid",
            "label": "donations",
            "offset": 0,
            "slot": "10",
            "type": "t_array(t_uint256)dyn_storage"
          }
        ],
        "numberOfBytes": "352"
      },
      "t_struct(Home)30_storage": {
        "encoding": "inplace",
        "label": "struct SaveAKid.Home",
        "members": [
          {
            "astId": 19,
            "contract": "contracts/SaveAKid.sol:SaveAKid",
            "label": "owner",
            "offset": 0,
            "slot": "0",
            "type": "t_address"
          },
          {
            "astId": 21,
            "contract": "contracts/SaveAKid.sol:SaveAKid",
            "label": "homeName",
            "offset": 0,
            "slot": "1",
            "type": "t_string_storage"
          },
          {
            "astId": 23,
            "contract": "contracts/SaveAKid.sol:SaveAKid",
            "label": "description",
            "offset": 0,
            "slot": "2",
            "type": "t_string_storage"
          },
          {
            "astId": 25,
            "contract": "contracts/SaveAKid.sol:SaveAKid",
            "label": "location",
            "offset": 0,
            "slot": "3",
            "type": "t_string_storage"
          },
          {
            "astId": 27,
            "contract": "contracts/SaveAKid.sol:SaveAKid",
            "label": "image",
            "offset": 0,
            "slot": "4",
            "type": "t_string_storage"
          },
          {
            "astId": 29,
            "contract": "contracts/SaveAKid.sol:SaveAKid",
            "label": "contactPerson",
            "offset": 0,
            "slot": "5",
            "type": "t_uint256"
          }
        ],
        "numberOfBytes": "192"
      },
      "t_uint256": {
        "encoding": "inplace",
        "label": "uint256",
        "numberOfBytes": "32"
      }
    }
  }
}