{
  "_format": "hh-sol-artifact-1",
  "contractName": "SaveAKid",
  "sourceName": "contracts/SaveAKid.sol",
  "abi": [
    {
      "inputs": [
        {
          "internalType": "uint256",
          "name": "_platformFee",
          "type": "uint256"
        }
      ],
      "stateMutability": "payable",
      "type": "constructor"
    },
    {
      "inputs": [
        {
          "internalType": "uint256",
          "name": "",
          "type": "uint256"
        }
      ],
      "name": "homes",
      "outputs": [
        {
          "internalType": "address",
          "name": "owner",
          "type": "address"
        },
        {
          "internalType": "string",
          "name": "homeName",
          "type": "string"
        },
        {
          "internalType": "string",
          "name": "description",
          "type": "string"
        },
        {
          "internalType": "string",
          "name": "location",
          "type": "string"
        },
        {
          "internalType": "string",
          "name": "image",
          "type": "string"
        },
        {
          "internalType": "uint256",
          "name": "contactPerson",
          "type": "uint256"
        }
      ],
      "stateMutability": "view",
      "type": "function"
    },
    {
      "inputs": [],
      "name": "manager",
      "outputs": [
        {
          "internalType": "address",
          "name": "",
          "type": "address"
        }
      ],
      "stateMutability": "view",
      "type": "function"
    },
    {
      "inputs": [],
      "name": "numberOfHomes",
      "outputs": [
        {
          "internalType": "uint256",
          "name": "",
          "type": "uint256"
        }
      ],
      "stateMutability": "view",
      "type": "function"
    },
    {
      "inputs": [],
      "name": "platformFee",
      "outputs": [
        {
          "internalType": "uint256",
          "name": "",
          "type": "uint256"
        }
      ],
      "stateMutability": "view",
      "type": "function"
    },
    {
      "inputs": [
        {
          "internalType": "address",
          "name": "_owner",
          "type": "address"
        },
        {
          "internalType": "string",
          "name": "_homeName",
          "type": "string"
        },
        {
          "internalType": "string",
          "name": "_description",
          "type": "string"
        },
        {
          "internalType": "string",
          "name": "_location",
          "type": "string"
        },
        {
          "internalType": "string",
          "name": "_image",
          "type": "string"
        },
        {
          "internalType": "uint256",
          "name": "_contactPerson",
          "type": "uint256"
        }
      ],
      "name": "registerHome",
      "outputs": [
        {
          "internalType": "uint256",
          "name": "",
          "type": "uint256"
        }
      ],
      "stateMutability": "nonpayable",
      "type": "function"
    }
  ],
  "bytecode": "0x6080604052604051610c30380380610c30833981810160405281019061002591906100b1565b3373ffffffffffffffffffffffffffffffffffffffff16600260009054906101000a905050508060038190555034600160003373ffffffffffffffffffffffffffffffffffffffff1673ffffffffffffffffffffffffffffffffffffffff1681526020019081526020016000208190555050610104565b6000815190506100ab816100ed565b92915050565b6000602082840312156100c7576100c66100e8565b5b60006100d58482850161009c565b91505092915050565b6000819050919050565b600080fd5b6100f6816100de565b811461010157600080fd5b50565b610b1d806101136000396000f3fe608060405234801561001057600080fd5b50600436106100575760003560e01c806301327b3f1461005c57806326232a2e1461008c578063481c6a75146100aa57806361b0ef0a146100c8578063aab5482c146100fd575b600080fd5b61007660048036038101906100719190610603565b61011b565b604051610083919061081c565b60405180910390f35b610094610218565b6040516100a1919061081c565b60405180910390f35b6100b261021e565b6040516100bf9190610784565b60405180910390f35b6100e260048036038101906100dd9190610700565b610244565b6040516100f49695949392919061079f565b60405180910390f35b6101056104c0565b604051610112919061081c565b60405180910390f35b60008060008060045481526020019081526020016000209050878160000160006101000a81548173ffffffffffffffffffffffffffffffffffffffff021916908373ffffffffffffffffffffffffffffffffffffffff1602179055508681600101908051906020019061018f9291906104c6565b50858160020190805190602001906101a89291906104c6565b50848160030190805190602001906101c19291906104c6565b50838160040190805190602001906101da9291906104c6565b50828160050181905550600460008154809291906101f7906109be565b9190505550600160045461020b91906108a9565b9150509695505050505050565b60035481565b600260009054906101000a900473ffffffffffffffffffffffffffffffffffffffff1681565b60006020528060005260406000206000915090508060000160009054906101000a900473ffffffffffffffffffffffffffffffffffffffff169080600101805461028d9061095b565b80601f01602080910402602001604051908101604052809291908181526020018280546102b99061095b565b80156103065780601f106102db57610100808354040283529160200191610306565b820191906000526020600020905b8154815290600101906020018083116102e957829003601f168201915b50505050509080600201805461031b9061095b565b80601f01602080910402602001604051908101604052809291908181526020018280546103479061095b565b80156103945780601f1061036957610100808354040283529160200191610394565b820191906000526020600020905b81548152906001019060200180831161037757829003601f168201915b5050505050908060030180546103a99061095b565b80601f01602080910402602001604051908101604052809291908181526020018280546103d59061095b565b80156104225780601f106103f757610100808354040283529160200191610422565b820191906000526020600020905b81548152906001019060200180831161040557829003601f168201915b5050505050908060040180546104379061095b565b80601f01602080910402602001604051908101604052809291908181526020018280546104639061095b565b80156104b05780601f10610485576101008083540402835291602001916104b0565b820191906000526020600020905b81548152906001019060200180831161049357829003601f168201915b5050505050908060050154905086565b60045481565b8280546104d29061095b565b90600052602060002090601f0160209004810192826104f4576000855561053b565b82601f1061050d57805160ff191683800117855561053b565b8280016001018555821561053b579182015b8281111561053a57825182559160200191906001019061051f565b5b509050610548919061054c565b5090565b5b8082111561056557600081600090555060010161054d565b5090565b600061057c6105778461085c565b610837565b90508281526020810184848401111561059857610597610a99565b5b6105a3848285610919565b509392505050565b6000813590506105ba81610ab9565b92915050565b600082601f8301126105d5576105d4610a94565b5b81356105e5848260208601610569565b91505092915050565b6000813590506105fd81610ad0565b92915050565b60008060008060008060c087890312156106205761061f610aa3565b5b600061062e89828a016105ab565b965050602087013567ffffffffffffffff81111561064f5761064e610a9e565b5b61065b89828a016105c0565b955050604087013567ffffffffffffffff81111561067c5761067b610a9e565b5b61068889828a016105c0565b945050606087013567ffffffffffffffff8111156106a9576106a8610a9e565b5b6106b589828a016105c0565b935050608087013567ffffffffffffffff8111156106d6576106d5610a9e565b5b6106e289828a016105c0565b92505060a06106f389828a016105ee565b9150509295509295509295565b60006020828403121561071657610715610aa3565b5b6000610724848285016105ee565b91505092915050565b610736816108dd565b82525050565b60006107478261088d565b6107518185610898565b9350610761818560208601610928565b61076a81610aa8565b840191505092915050565b61077e8161090f565b82525050565b6000602082019050610799600083018461072d565b92915050565b600060c0820190506107b4600083018961072d565b81810360208301526107c6818861073c565b905081810360408301526107da818761073c565b905081810360608301526107ee818661073c565b90508181036080830152610802818561073c565b905061081160a0830184610775565b979650505050505050565b60006020820190506108316000830184610775565b92915050565b6000610841610852565b905061084d828261098d565b919050565b6000604051905090565b600067ffffffffffffffff82111561087757610876610a65565b5b61088082610aa8565b9050602081019050919050565b600081519050919050565b600082825260208201905092915050565b60006108b48261090f565b91506108bf8361090f565b9250828210156108d2576108d1610a07565b5b828203905092915050565b60006108e8826108ef565b9050919050565b600073ffffffffffffffffffffffffffffffffffffffff82169050919050565b6000819050919050565b82818337600083830152505050565b60005b8381101561094657808201518184015260208101905061092b565b83811115610955576000848401525b50505050565b6000600282049050600182168061097357607f821691505b6020821081141561098757610986610a36565b5b50919050565b61099682610aa8565b810181811067ffffffffffffffff821117156109b5576109b4610a65565b5b80604052505050565b60006109c98261090f565b91507fffffffffffffffffffffffffffffffffffffffffffffffffffffffffffffffff8214156109fc576109fb610a07565b5b600182019050919050565b7f4e487b7100000000000000000000000000000000000000000000000000000000600052601160045260246000fd5b7f4e487b7100000000000000000000000000000000000000000000000000000000600052602260045260246000fd5b7f4e487b7100000000000000000000000000000000000000000000000000000000600052604160045260246000fd5b600080fd5b600080fd5b600080fd5b600080fd5b6000601f19601f8301169050919050565b610ac2816108dd565b8114610acd57600080fd5b50565b610ad98161090f565b8114610ae457600080fd5b5056fea2646970667358221220f179ed1a57a75c7409a9c7716e05dff2a650d917cbb0ac4f28869fd568e1facf64736f6c63430008070033",
  "linkReferences": {},
  "deployedLinkReferences": {}
}